:020000040800F2
:10200000083500207D5C00085F2100086121000880
:102010006321000865210008672100080000000016
:10202000000000000000000000000000692100081E
:102030006B210008000000006D2100086F210008DE
:10204000975C0008975C0008975C0008975C0008A4
:10205000975C0008975C0008975C0008975C000894
:10206000975C0008975C000855210008975C000801
:10207000975C0008975C0008832100088521000810
:102080008B210008975C0008975C0008975C0008AB
:10209000975C0008975C0008975C0008975C000854
:1020A000975C0008975C0008975C0008975C000844
:1020B0007D210008975C0008975C0008975C000889
:1020C000975C0008975C0008975C0008975C000824
:1020D000975C000881550008DD550008975C0008F2
:1020E000975C0008975C0008975C0008975C000804
:1020F000975C0008975C0008975C0008975C0008F4
:10210000975C0008975C0008975C0008975C0008E3
:10211000975C0008975C0008975C0008975C0008D3
:10212000975C0008975C0008975C0008975C0008C3
:10213000DFF810D00AF038FE0048004749210008B7
:10214000AFF300800835002000F0F5F900F010FA38
:10215000FCE700000E490120087009F046BB7047FB
:10216000FEE7FEE7FEE7FEE770477047704710B5F1
:1021700008F0CBFCBDE8104000F0FDB9054806F0C2
:102180000FB97047044809F0DEBE044809F0DBBE11
:10219000000000204C1E0020C41D0020081E00204E
:1021A000B94808B5816941F001018161816901F097
:1021B00001010091C16941F08051C161C0690022F3
:1021C00000F0805000901146501E0AF040F8AF49D0
:1021D000486820F0E06040F00070486008BD2DE9DC
:1021E000F04F85B00024A84905460094019402945C
:1021F0000394886940F480508861886900F48050B5
:102200000490C86940F48040C861C869DFF88092D2
:1022100000F4804004902968DFF8788202260327C2
:102220004FF0A00A4FF0400B49450DD1CDE900A673
:1022300069464046039709F065F9CDE900B469465F
:102240004046029409F05EF9296849450DD1CDE96F
:1022500000A669464046039709F054F9CDE900B459
:1022600069464046029409F04DF98B492868884236
:1022700012D14FF42040CDE90006884D69460397FE
:10228000284609F03FF94FF48040CDE90004694643
:102290002846029409F036F905B0BDE8F08F0168D0
:1022A0007B48794A814206D1906920F48050906140
:1022B000E021784811E0784B7848994205D1D169FE
:1022C00021F48041D161990007E0754B994206D114
:1022D000D16921F40041D161382109F0F6B9704784
:1022E0002DE9F04F85B0002504466748009501951B
:1022F00002950395816941F480418161816901F40E
:1023000080410491C16941F40031C161C16901F4A6
:1023100000310491C16941F48021C161C069614902
:1023200000F4802004902068DFF8689102260327DB
:102330004FF4806B4FF0800A88422ED14015CDE9D2
:10234000000669460397484609F0DCF8CDE900B578
:1023500069464846029509F0D5F8DFF850815249A0
:102360004046C0E90015C0E9025AC8F81050C8F844
:1023700014508914C8E9065109F056FA08B103F05F
:102380001FF8C4F834802520C8F8244009F07DFFE8
:1023900003221146252009F05AFF4549206888424A
:1023A00030D10420CDE9000669460397484609F07C
:1023B000A9F80820CDE9000569464846029509F0CC
:1023C000A1F8DFF8F080384940461431C0E9001523
:1023D000C0E9025AC8F81050C8F814508914C8E966
:1023E000065109F021FA08B102F0EAFFC4F834807E
:1023F0002620C8F8244009F048FF032202212620A5
:1024000009F025FF2C49206888420FD1234CCDE9E3
:1024100000B669462046039709F074F8E014CDE948
:10242000000569462046029509F06CF834E770B55E
:10243000044600681B49174E134D884208D1A8690D
:1024400020F48040A8614FF4C061304609F03DF9A6
:1024500017492068884207D1E86920F40030E86114
:102460000C21304609F031F91349206888420AD11D
:10247000E86920F48020E861BDE870404FF44061D5
:10248000064809F022B970BD00100240000001406A
:10249000003001400008014000380040000C0140BD
:1024A000003C00400038014058000240C41D00209C
:1024B00000440040081E00200048004030B595B0A0
:1024C000282168460AF025FC14210AA80AF021FCFC
:1024D00018210FA80AF01DFC01210804CDE9001005
:1024E0000024029402250491CDE907504FF4E01036
:1024F0000990684608F0EFFB08B102F061FF0F2079
:10250000CDE90A054FF48060CDE90C4002210AA80C
:102510000E9408F09FFD08B102F052FF4FF4004006
:1025200011900F950FA808F0F9FE002801D002F0D5
:1025300047FF15B030BD244910B52248086072B677
:1025400062B608F0C4FA02F0BEFE03F01CF91F48A0
:1025500000F083F81D4C1EA0A1780AF071FC617890
:1025600021A00AF06DFCBDE8104025A00AF068BC6F
:10257000002002F0E8BC02F0CABC10B5A8B04AF6D0
:102580005520ADF800009720ADF8020004208DF82A
:1025900004006C46FF229621601D0AF0B3FB9721D0
:1025A000601D03F001F928B0002010BD10B503F044
:1025B000CDF8064842788178BDE8104019A00AF0AD
:1025C0003FBC00000020000808ED00E002000020F1
:1025D000686172642076657273696F6E20203D2099
:1025E00025640D0A00000000736F66742076657222
:1025F00073696F6E20203D2025640D0A00000000E5
:10260000627520666569207379737465726D2069DF
:102610006E697420697320636F6D706C65746521D9
:102620000D0A0000B2E2CAD4C8CECEF120686172B1
:10263000642076657273696F6E20203D2025643BAF
:1026400020736F66742076657273696F6E20203D0B
:102650002025640D0A000000704770B50446364816
:1026600004F109010C2203690D4634489847617A48
:10267000284602F0CBFCD4F81D1088421DD1217BE6
:10268000E07AC943C9B2884200D12070217CE07B46
:10269000C943C9B2884200D1A070217CE07BC94304
:1026A000C9B2884200D1A070A17B607BC943C9B286
:1026B000884200D16070002070BD0120207002208F
:1026C000A0700320F6E72DE9E0431B4E0D461B4F9B
:1026D000804604F1090133690C228946384698473F
:1026E0000821F7206172A072B8F1000F06D0B8F18E
:1026F000010F05D0B8F1020F05D103E0257002E00B
:10270000657000E0A5702078E072C0432073A07867
:10271000E073C043207460786073C043A073484680
:1027200002F074FCC4F81D0049463846F368BDE861
:10273000E0430C221847000044D3000800F80108C9
:1027400070B505460023184671B148F20844491E89
:1027500089B20AD3EA5C5B1C50409BB20022C607D8
:1027600004D084EA500002E0002070BD4008521CF2
:10277000D2B2082AF3D3EAE72DE9F84F0446002045
:1027800000902078E578552802D16078AA2802D0F8
:102790000120BDE8F88F091F8D4237D1A81E81B2F4
:1027A000A01C03F00EF800F0FF09C0F307288DF815
:1027B0000090C0F307468DF80180070E8DF8026087
:1027C000EA468DF80370DAA00AF03AFB4946E1A028
:1027D0000AF036FB4146DFA00AF032FB3146DDA0AD
:1027E0000AF02EFB3946DBA00AF02AFBDAA00AF039
:1027F00027FB002150466B18425CE35C9A4205D1EE
:10280000491CC9B20429F6D30020C2E70220C0E760
:10281000704770B50278411C0024D0480AF060FA75
:10282000CE4D687803282CD1A878C01CC1B22846A8
:1028300002F096FFA978EA1C8B5C521C8A5C03EBC1
:102840000222824218D128796A79000400EB022022
:10285000AA790829024406D1287A697A000400EB93
:102860000120A97A4418BE48214623460460BDE8E9
:102870007040BCA00AF0E4BABDE87040C5A00AF000
:10288000DFBA70BDB548C43002F062BC0146B3483F
:10289000C43002F064BCB2480821083802F025BEFA
:1028A00010B5AE4CC434204602F056FC002812D0BD
:1028B0000021C9204843205C50B1C92000FB0140E1
:1028C000FFF7A7FF2046BDE81040002102F07FBCC3
:1028D000491C0A29EDDB10BDF0B58DB00E46074648
:1028E0000025342168460AF014FA55218DF80010AD
:1028F000AA218DF8011014218DF80210711D8DF898
:102900000310002168468DF80410052405E0795D68
:102910000155641C6D1CA4B2EDB2B542F7D3A11EE3
:10292000054689B2801C02F04CFF28550146641C04
:10293000A0B20A0A2A54401C80B20A0C2A54401C35
:1029400080B2090E2954401C81B2684602F0E3FDB2
:102950000DB0F0BD2DE9F0419AB00446342168462F
:102960000AF0D7F90025ADF864502088A0F52A4177
:1029700055397AD18DA00AF063FA21888EA00AF029
:102980005FFAA17890A00AF05BFA617991A00AF051
:1029900057FAE17994A00AF053FAE17897A00AF087
:1029A0004FFA217A98A00AF04BFA9BA00AF048FA55
:1029B000E078083881B204F10800804602F04CFE4D
:1029C00065A00AF03DFAE0790127964C0826882890
:1029D0007ED00DDC80284FD0812863D084285ED142
:1029E00091A00AF02DFA2068016919A8884761E0D2
:1029F0008A2864D00224A12829D0A2284FD18FA0F0
:102A00000AF01EFA13A801F047FD182213A90DA819
:102A10000AF066F99DF8360018B1012826D004287E
:102A200027D08DF80050DDF83A00CDF80100DDF830
:102A30003E00CDF805004A48016886A00AF000FA79
:102A4000474808380D218068CDF8090024E085A0AA
:102A50000AF0F6F988488DF8005081788DF8011059
:102A600040788DF80200032116E018E08DF8007020
:102A7000D9E78DF80040D6E780A00AF0E1F9002000
:102A800002F02EFA032002F02BFA042002F028FABA
:102A9000206842680BE001216846FFF71DFF1AB06D
:102AA000BDE8F0817BA00AF0CBF92068826819A903
:102AB0004046904748B18DF80060ECE708E07BA005
:102AC0000AF0BEF92068C268F1E78DF80050E2E72D
:102AD0007DA00AF0B5F98DF8005039466846FFF739
:102AE000FBFE09F0F0FBDAE77C4802F08DBB014603
:102AF0007A4802F090BB704710B5784C204602F03F
:102B000087FB002813D00021C9204843205C58B11E
:102B1000C92000FB0140401CFFF71CFF2046BDE818
:102B20001040002102F0AFBB491C0A29ECDB10BDAC
:102B30000D0A2D2D2D2D2D2D2D2D2D2D435243D014
:102B4000A3D1E9D6B5A3BA2D2D2D2D2D2D2D2D2DAB
:102B50002D0D0A00257820000D0A000080020020BB
:102B600014010020D6C7D4B6B4ABB8D0C6F7D6D8B7
:102B7000C1BFD6B5203D2025642C20CDA8B5C031DD
:102B8000203D2025642C20CDA8B5C032203D202535
:102B9000640D0A004D6F64627573205254552063B2
:102BA000726320CAA7B0DC0D0A0000005431313333
:102BB0005F726576202C0000686561646572203D57
:102BC000202534782C2000006964203D20253478AD
:102BD0002C2000006D61696E20636D64203D20250E
:102BE00032782C200000000073616C766520636DE4
:102BF00064203D202532782C200000006C656E7327
:102C0000203D2025642C2000706B675F6E756D2061
:102C10003D2025642C2000007265765F646174613C
:102C2000203D2000D0010020C8B7C8CFC9FDBCB6E8
:102C30002030783834200D0A00000000B6C1C8A149
:102C4000D6D8C1BFC3FCC1EEA1A3A1A3A1A3A1A3D8
:102C50000D0A0000BEBBD6D8203D202564200D0AF9
:102C600000000000BBF1C8A1B0E6B1BEBAC520307B
:102C7000784131200D0A000002000020CFC2B7A227
:102C8000C9FDBCB6B0FCD0C5CFA22030783830200A
:102C90000D0A0000CFC2B7A2C9FDBCB6B0FCCAFD88
:102CA000BEDD2030783831200D0A0000CFC2B7A237
:102CB000C8B1CAA7C9FDBCB6B0FCCAFDBEDD203094
:102CC000783841200D0A0000D6D8C6F4CFB5CDB370
:102CD0002030783838200D0A00000000210B002039
:102CE000FD498A689207FCD5C8608868C007FCD097
:102CF000C868C0B2704770B5F84D04460022102174
:102D0000284608F054FD012000EB4400C0B2FFF754
:102D1000E7FF0020FFF7E4FF0446012210212846C8
:102D200008F045FD0A2002F0ADFD204670BD7FB5DC
:102D300001F053FB1020012500240226CDE90005F7
:102D4000CDE902466946E54808F0DCFBCDE90065BF
:102D5000CDE90246E24E6946304608F0D3FBE14831
:102D60000095CDE901046946304608F0CBFB00220E
:102D70000F210A2009F06BFA0A2009F086FA0022D6
:102D80000221304608F013FD1E2001F048FB7F2091
:102D9000FFF7B1FF0146D4A00AF052F87FBD70B52D
:102DA000CE4D0E46044600221021284608F0FFFCB6
:102DB0006006000EFFF794FF3046FFF791FF0122F7
:102DC0001021284608F0F3FCBDE870400A2002F00C
:102DD00059BD70B50C460546FFF78DFF40EA04016A
:102DE0002846BDE87040DAE770B50C460546FFF7A7
:102DF00082FF20EA04012846BDE87040CFE770B5A5
:102E000014460D460646FFF776FF284040EA0401C7
:102E10003046BDE87040C2E710210220D9E7082102
:102E20002820D6E708212820DEE710B5FFF7FAFFB3
:102E3000142001F0F4FAFFF7F2FFBDE8104014206F
:102E400001F0EDBA2DE9F041054600210846FFF7F3
:102E5000A6FF10210220FFF7BCFF7F210620FFF70D
:102E60009EFF7F210720FFF79AFF002406E0281924
:102E700001790520FFF793FF641CE4B26888A04243
:102E8000F5D82978080626D590210820FFF787FF76
:102E90009D4E307808B1E02100E0E8210920FFF7DD
:102EA0007EFF9A4C0027384627702978FFF777FF76
:102EB00020780028FDD0277010210820FFF76FFF31
:102EC000307808B1202100E028210920FFF767FFB2
:102ED0004FF4FA6401E00020F8E70620FFF70BFF4B
:102EE000C00604D4641E2404240CF6D106E02CB1E0
:102EF0000420FFF700FF064600240AE06FF07D0083
:102F0000BDE8F0810520FFF7F6FE2919641C087161
:102F1000E4B2B442F6D30020F2E700B591B00D223E
:102F20008DF800208DF804000222ADF802208DF803
:102F300005106846FFF786FF11B000BD00B591B0DF
:102F400002218DF800100621ADF8021001680191F0
:102F50008088ADF808006846FFF774FFECE710B50D
:102F600092B003238DF8003006238DF80400ADF8ED
:102F700002308DF805101068CDF806006846FFF79E
:102F800061FF040005D10B20FFF7B5FE800600D4D9
:102F9000241F12B0204610BD10B5044698210F2002
:102FA000FFF7FDFE92211420FFF7F9FE20211920E2
:102FB000FFF7F5FE03211A20FFF7F1FEFF211B208A
:102FC000FFF7EDFE00211E20FFF7E9FE412C06D0A1
:102FD000422C4BD0462C7CD0562C7BD063E1102168
:102FE0000320FFF7DCFE80210C20FFF7D8FE8021B4
:102FF0002820FFF7D4FEC0212920FFF7D0FE0921A9
:103000002A20FFF7CCFE05212B20FFF7C8FE002168
:103010003420FFF7C4FE00210846FFF77EFF0021A1
:103020000820FFF7BCFE00210920FFF7B8FEB02101
:103030000220FFF7B4FE20212F20FFF7B0FE002171
:103040003020FFF7ACFECF213320FFF7A8FE04218C
:103050003520FFF7A4FE55213720FFF7A0FE1221EF
:103060003820FFF79CFE0A2139200EE110210320B1
:10307000FFF795FE80210C20FFF791FE8F2128207D
:10308000FFF78DFE0C212920FFF789FE01212A2060
:10309000FFF785FE05212B20FFF781FE002134205C
:1030A000FFF77DFE04210846FFF737FF00210820C7
:1030B000FFF775FE00210920FFF771FEB021022005
:1030C000FFF76DFE0A212F20FFF769FE0021302057
:1030D0001EE03AE08FE000000030014000080140AF
:1030E000000C01400000111052433636335F526528
:1030F00061645265672076657273696F6E3A202548
:10310000303278200D0A00001C0100200000002051
:10311000FFF745FE01213120FFF741FE0521332055
:10312000FFF73DFEB2213420FFF739FE3421352070
:10313000FFF735FE9F213720FFF731FE122138209F
:10314000FFF72DFE0A21392049E010210320FFF767
:1031500026FE80210C20FFF722FE88212820FFF781
:103160001EFE04212920FFF71AFE01212A20FFF765
:1031700016FE05212B20FFF712FE00213420FFF759
:103180000EFE08210846FFF7C8FE00210820FFF7C1
:1031900006FE00210920FFF702FEB0210220FFF702
:1031A000FEFD00212F20FFF7FAFD03213020FFF75D
:1031B000F6FD01213320FFF7F2FD05213520FFF751
:1031C000EEFD5C213720FFF7EAFD12213820FFF7E2
:1031D000E6FD02213920FFF7E2FD86213620FFF7C8
:1031E000DEFD87212820FFF7DAFD00210B20FFF705
:1031F000D6FD8F2154E010210320FFF7D0FD802160
:103200000C20FFF7CCFD89212820FFF7C8FD1021F5
:103210002920FFF7C4FD09212A20FFF7C0FD0A215C
:103220002B20FFF7BCFD00213420FFF7B8FD0A2159
:103230000846FFF772FE00210820FFF7B0FD0021CD
:103240000920FFF7ACFDB0210220FFF7A8FD002107
:103250002F20FFF7A4FD00213020FFF7A0FD0F2154
:103260003320FFF79CFD02213520FFF798FD7421E4
:103270003720FFF794FD12213820FFF790FD07213A
:103280003920FFF78CFD9C213620FFF788FD812136
:103290002820FFF784FD00210B20FFF780FD892106
:1032A0002820FFF77CFD002010BD2DE9F0410446E9
:1032B00000216FF07D070846FFF771FD1021022005
:1032C000FFF787FD7F210620FFF769FD7F2107209B
:1032D000FFF765FD002506E0601901790520FFF77D
:1032E0005EFD6D1CADB26088A842F5D8182108209B
:1032F000FFF755FD42210920FFF751FD072100206E
:10330000FFF74DFD0720FFF7F6FC4006FAD55421E4
:103310000820FFF744FD42210920FFF740FD4FF44C
:10332000FA550720FFF7E7FC0646400603D46D1E5A
:103330002D042D0CF5D100210820FFF730FD0021D0
:103340000920FFF72CFD0A20FFF7D5FC2DB1B207AD
:103350004FF0FF3104D50F4632E06FF01D072FE02C
:1033600048B1410702D56FF0170729E0C00727D001
:103370006FF0140724E020780027072820D10420CC
:10338000FFF7B9FC06460C20FFF7B5FC10F007006C
:1033900003D0F1000839084400E0F000608026B155
:1033A000FA2E00D9FA26002508E00126FBE70520C1
:1033B000FFF7A1FC61196D1C0871ADB2B542F6D3DF
:1033C00038469DE500B591B007218DF80010022127
:1033D000ADF8021050218DF80410002168468DF8D8
:1033E0000510FFF762FF401C01D06FF07D00A3E5E0
:1033F00070B592B00C4606466D4618212C20FFF79A
:10340000CEFC18212D20FFF7CAFC00210B20FFF76E
:10341000C6FCC0213120FFF7C2FC0B213220FFF790
:10342000BEFC08211020FFF7BAFC94211120FFF701
:10343000B6FC00211520FFF7B2FC40211620FFF753
:10344000AEFC08210620FFF7AAFC90213620FFF7EA
:10345000A6FC0F212E20FFF7A2FC07208DF800000C
:103460000120ADF802008DF804602846FFF71DFF2B
:10347000002805D1BDF80210102903D06FF07B00A1
:1034800012B070BD9DF8041021709DF80510617098
:10349000F6E72DE9F04F95B0002582462C461195B0
:1034A0001295CDF84CD008212E20FFF778FCE94684
:1034B0000DF1440B14F007060ED0012000EBD407E9
:1034C0003007020E8F210C20FFF799FC3246F821BD
:1034D0002E20FFF794FC00E0E70807208DF800009D
:1034E00093208DF80400E00860F31F1620368DF855
:1034F000056000204E46D84605E018F80010321846
:10350000401C9171C0B2B842F7D3BF1CADF8027035
:103510001398FFF7CAFE08EBD4024746137810F160
:10352000180F06D0002842D1B1460021BDF8026034
:1035300023E04FF0050C0021ACEBD40CB14608E0C1
:1035400009EB010601EBD4087679491C07F80860FD
:10355000C9B28C45F4DC1178194311709DF8044010
:1035600011E0C1EBD60808EB090CC1F104089CF886
:1035700003C0491C07F808C0C9B2B1EBD60FF0D39D
:1035800011781943117010F1180F93D000280ED143
:1035900000217A5C0AF801206A40491CC9B215462C
:1035A0000429F6D3795C914201D06FF07C0015B00C
:1035B000BDE8F08FF0B591B00F46054600246E4689
:1035C0000122FE212C20FFF71AFC0122FE212D20D2
:1035D000FFF715FC07208DF80000ADF802009320DE
:1035E0008DF8040070208DF8050000206A46295CE3
:1035F0001318401C4C40C0B299710428F7D38DF8C1
:103600000A403046FFF751FE002805D1BDF80210F0
:10361000082903D06FF00A0011B0F0BD9DF8041026
:103620003970F9E770B592B00D4606466C46012236
:10363000FE212C20FFF7E3FB0022FE212D20FFF7C7
:10364000DEFB07208DF800000220ADF802003020DC
:103650008DF804008DF805602046FFF726FE040073
:103660000BD1BDF80200902802D06FF00A0404E0EC
:103670001022284601A909F033FB204600E7F0B5E7
:1036800091B00F4607258DF800500221ADF80210C9
:10369000A0218DF804106E468DF805003046FFF726
:1036A00004FE411CB8D0BDF80200042802D06FF01F
:1036B0000A00B1E79DF8040010F00F008DF8040037
:1036C00004D06FF005040A281BD102E06FF0090056
:1036D000A2E710208DF80050ADF8020002463946EE
:1036E00001A809F0FDFA3046FFF7DFFD411C93D039
:1036F0009DF8040010F00F008DF8040003D00A2894
:1037000004D0204688E76FF00E0085E7002083E7AD
:1037100070B588B04120FFF73FFC01A95220FFF7A8
:1037200067FE04460146F9A009F08AFB34B99DF80A
:1037300004209DF80510F8A009F082FBF9A009F01B
:103740007FFB002C7AD101ADA81CFFF7A2FE044636
:103750000146F5A009F074FB5CB99DF809000090E2
:103760009DF808309DF807209DF80610F1A009F09B
:1037700067FBECA009F064FB002C5FD1A91DA81C1D
:10378000FFF718FF04460146EFA009F059FB24B9E2
:103790009DF80A10EFA009F053FBE2A009F050FBDE
:1037A000002C4BD1ED48FFF7C9FB04460146ECA0C5
:1037B00009F046FB002C41D1AA1C00216020FFF734
:1037C000CEFB04460146EAA009F03AFB002C35D1B5
:1037D00003A90120FFF726FF06460146E7A009F0EE
:1037E0002FFB03ADE8A0295D09F02AFB641CE4B2BD
:1037F000102CF7D3CBA009F023FB002E1ED14FF4E1
:103800000075E34CFFF70EFB0A2000F008FEFFF7FF
:1038100006FB01222946204607F0C9FF0A2000F0D6
:10382000FEFD01A95220FFF7E3FD002806D100228A
:103830002946204607F0BBFFE4E7FFE708B070BD6C
:1038400070B592B00D4606466C467B212C20FFF7E2
:10385000A6FA7B212D20FFF7A2FA08212E20FFF7E0
:103860009EFAC1213120FFF79AFA0B213220FFF78F
:1038700096FA08211020FFF792FA94211120FFF701
:103880008EFA00211520FFF78AFA20211620FFF773
:1038900086FA08210620FFF782FA90213620FFF7EA
:1038A0007EFA07208DF800000320ADF80200052005
:1038B0008DF8040000208DF805008DF806002046E4
:1038C000FFF7F3FC040007D1BDF80200602805D023
:1038D000102803D06FF07B042046D1E5C0F3C70267
:1038E0002A70304601A909F0FBF9F5E710B592B04E
:1038F00007218DF800100921ADF802101D218DF867
:10390000041000218DF808108DF8091008228DF898
:1039100005108DF80A2004468DF80610012268462D
:103920008DF807108DF80B208DF80C10FFF7BDFCFB
:10393000002805D1BDF80210082903D06FF00A0055
:1039400012B010BD9DF804102170F9E710B592B0C7
:10395000044607208DF800000520ADF80200002085
:103960008DF8040036228DF805208DF806008DF8BC
:10397000070008208DF808006846FFF796FC18B984
:10398000BDF80210502902D06FF07D00D8E70199F0
:10399000216002996160BDF80C102181D0E77FB5EC
:1039A0004220FFF7F9FA0A2000F039FD03A9684622
:1039B000FFF746FF0646014676A009F041FA6D463C
:1039C0005EB9002405E0295D6FA009F039FA641C96
:1039D000E4B29DF80C008442F5D352A009F030FA0D
:1039E000002E48D19DF80C000C2812D16846FFF734
:1039F0007DFF044601466AA009F022FA24B99DF829
:103A0000001061A009F01CFA46A009F019FA002C78
:103A100031D16846FFF79AFF0446014642A009F0FB
:103A20000FFA3CB9295D58A009F00AFA641CE4B207
:103A30000A2CF7D33BA009F003FA4FF40075544C5D
:103A4000FFF7F0F90A2000F0EAFCFFF7E8F901229D
:103A50002946204607F0ABFE0A2000F0E0FC03A94F
:103A60006846FFF7EDFE002805D1002229462046D2
:103A700007F09DFEE4E77FBD70B592B00D460446A9
:103A80006E4609212C20FFF78AF909212D20FFF726
:103A900086F908212E20FFF782F9C0213120FFF797
:103AA0007EF900213220FFF77AF900211020FFF77C
:103AB00076F980211120FFF772F903211520FFF715
:103AC0006EF922211620FFF76AF907208DF8000011
:103AD0000620ADF802008DF8040000208DF80500E6
:103AE000FF218DF808008DF806108DF809008DF87B
:103AF00007103046FFF7D9FB002805D1BDF80210AA
:103B0000902953D06FF07B00BAE40000415451413A
:103B10003A2025645F0000002025303258202530EF
:103B2000325800000A0000005549443A2025645FDD
:103B30000000000025303258202530325820253032
:103B4000325820253032580053454C4543543A20D2
:103B500025645F0025303258000000001D01002060
:103B60004C6F61644B65793A2025640A00000000BF
:103B7000417574683A2025640A00000052454144AA
:103B80003A25645F00000000202530325800000014
:103B9000000C0140415451423A2025645F0000006E
:103BA00053454C4543543A25645F0000DDF8061048
:103BB0002160DDF80A106160DDF80E102960DDF883
:103BC000121069605CE470B592B00D4604466E4612
:103BD00041211020FFF7E3F80B211120FFF7DFF858
:103BE00007208DF800001020ADF802008DF80400C9
:103BF00006208DF805002068CDF806006068CDF835
:103C00000A0001208DF80E000B218DF80F10002105
:103C10008DF810108DF8110080218DF812108DF89C
:103C200013003046FFF741FB040005D1BDF8020048
:103C3000E82803D06FF07B04204621E410222846B8
:103C40000DF1110109F04CF8F6E770B592B00E468F
:103C500004466D4600211020FFF7A1F880211120B5
:103C6000FFF79DF802211520FFF799F8A1211620F2
:103C7000FFF795F807208DF800002020ADF802002E
:103C80008DF8040008208DF805002068CDF80600A6
:103C90006068CDF80A0001208DF80E0009218DF82A
:103CA0000F1000218DF810108DF8110080218DF873
:103CB00012108DF813001022314605A809F010F8F3
:103CC0002846FFF7F2FA002805D1BDF80210602956
:103CD00001D06FF07B00D1E470B588B04620FFF7CB
:103CE0005BF90A2000F09BFB06A96846FFF7C4FEBB
:103CF00005460146FBA009F0A3F8BDB900246E46B5
:103D0000FBA0315D09F09CF8641CE4B2082CF7D3E9
:103D1000F6A009F095F8002406AE315DAFF29810D8
:103D200009F08EF8641CE4B2082CF6D3AFF20C2034
:103D300009F086F8002D38D102A96846FFF743FF45
:103D400005460146ECA009F07BF855B9002402AE07
:103D5000315DAFF2CC1009F073F8641CE4B2102CA2
:103D6000F6D3AFF2402009F06BF8002D1DD14FF4CF
:103D70000074E44DFFF756F80A2000F050FBFFF7FF
:103D80004EF801222146284607F011FD0A2000F0D6
:103D900046FB06A96846FFF76FFE002805D1002202
:103DA0002146284607F003FDE4E747E530B591B02A
:103DB00004466D467B212C20FEF7F1FF7B212D2050
:103DC000FEF7EDFF08212E20FEF7E9FF88213120C4
:103DD000FEF7E5FFA9213220FEF7E1FF00211020C8
:103DE000FEF7DDFF80211120FEF7D9FF032115200A
:103DF000FEF7D5FF22211620FEF7D1FF07208DF810
:103E000000000320ADF8020026208DF804000120F8
:103E10008DF8050000208DF806002846FFF745FACA
:103E2000002805D1BDF80210502903D06FF07B00A7
:103E300011B030BDDDF806102160DDF80A106160B8
:103E4000F6E730B591B004466D4624211020FEF708
:103E5000A6FFEB211120FEF7A2FF00211520FEF79F
:103E60009EFF00211620FEF79AFF07208DF8000024
:103E70000A20ADF8020022208DF8040025208DF8DC
:103E800005002068CDF806006068CDF80A002846D5
:103E9000FFF70BFA0028CBD1BDF8021019B19DF83D
:103EA00004100029C4D06FF07B00C1E7F0B591B0D9
:103EB0000E46074615466C4624211020FEF76FFF7C
:103EC000EB211120FEF76BFF00211520FEF767FFA5
:103ED00000211620FEF763FF07208DF80000032065
:103EE000ADF8020012208DF8040020208DF80500A6
:103EF0008DF806702046FFF7D8F904000FD1BDF801
:103F0000020050B1FF2101EBD000C2B22A7030464E
:103F10000DF1050108F0E4FE01E06FF07B0420469E
:103F200011B0F0BDF0B591B00F46064614466D468F
:103F300000211020FEF733FF80211120FEF72FFF14
:103F400008211520FEF72BFF6E211620FEF727FF14
:103F500007208DF80000E01CADF8020012208DF85B
:103F6000040021208DF805008DF8066022463946B0
:103F7000E81D08F0B5FE2846FFF797F90028CFD1D5
:103F8000BDF8021019B19DF804100029C8D06FF0D7
:103F90007B00C5E770B588B05620FEF7FDFF052011
:103FA00000F03DFA04A8FFF701FF050039D156A043
:103FB00008F046FF002404AE315DAFF2344008F053
:103FC0003FFF641CE4B2082CF6D3AFF2A84008F01F
:103FD00037FF002D25D104A8FFF733FF0446014623
:103FE0004DA008F02DFF002C1BD106AA6946032026
:103FF000FFF75CFF054601464AA008F021FF65B9BE
:104000006E4606E0315DAFF2804008F019FF641C97
:10401000E4B29DF818008442F4D3AFF2F84008F0FF
:104020000FFF0BE470B592B001211F20FEF7B7FE21
:104030000F212020FEF7B3FE14212420FEF7AFFE4F
:10404000A0212020FEF7ABFE3A4C207808B1DC21FD
:1040500000E0F4212320FEF7A2FE00214320FEF71A
:104060009EFE40213820FEF7B4FE3920FEF743FEC5
:10407000054603213920FEF792FE2320FEF73BFE82
:10408000000603D42CA008F0DBFEF6E781208DF8B3
:1040900000000020ADF802006846FEF7D3FE064699
:1040A00029463920FEF77BFE40213820FEF79CFE92
:1040B00040227F212320FEF7A2FE00210846FEF7C2
:1040C0006EFEB0210220FEF76AFE207848B107207C
:1040D000FEF711FE80063BD540214320FEF75FFE30
:1040E00038E037E0415451463A2025645F00000033
:1040F0002025303258200000526561643A20256442
:104100005F000000000C0140D1B0B5BDBFA8207514
:104110006964203D2000000053656C6563743A209B
:1041200025640A0052656164426C6F636B3A202516
:10413000645F00001C01002052433636335F526535
:10414000616452656720746573740A200000000082
:104150006FF07D063046D7E470B50C460546C021A9
:104160003F20FEF71CFEFF214020FEF718FEC02175
:104170004120FEF714FEAC4900200870FFF752FF03
:1041800006464220FEF7B7FD28704320FEF7B3FD38
:104190002070304670BD70B504460E4605463F2976
:1041A00001D24E1CF6B23F2C01D26C1CE4B209B114
:1041B000491EC9B20DB1451EEDB204F0300041EA0E
:1041C00080013F20FEF7EBFD04F00C0046EA0011F1
:1041D0004020FEF7E4FD04F0030045EA8011412091
:1041E000FEF7DDFD904901200870BDE8704019E739
:1041F000F0B5074685B05620FEF7CEFE052000F04C
:104200000EF93846FFF7D2FD05004FF0FF363BD1DF
:10421000AFF20C1008F014FE0024395DAFF2986084
:1042200008F00EFE641CE4B2082CF6D3AFF20C705A
:1042300008F006FE45BB3846FFF703FE044601467C
:10424000AFF22C1008F0FCFDF4B904AA6946032073
:10425000FFF72CFE05460146AFF2381008F0F0FDDE
:104260006DB900246F4606E0395DAFF2E46008F0F6
:10427000E7FD641CE4B29DF810008442F4D3AFF271
:104280005C7008F0DDFD15B1304605B0F0BD0020D2
:10429000FBE72DE9F04F834687B05620FEF77CFE02
:1042A000052000F0BCF86846FFF780FD5F4FDFF89F
:1042B00080A105004FF4007907F1580624D1009839
:1042C000C7F85E000198C7F86200B078002840D1B6
:1042D00001224946504607F06AFA0320B070AFF257
:1042E000D81008F0ADFD0024E84618F80410AFF22D
:1042F000687008F0A5FD641CE4B2082CF5D3AFF299
:10430000DC7008F09DFD25B3B0780025F8B10024DD
:104310005620FEF741FE052000F081F86846FFF7C1
:1043200045FD002850D0641CE4B2032CF0D30022D9
:104330004946504607F03BFA3EA0B570016847F881
:104340005E1F406878603EA008F07AFD3CE0B570E2
:104350003AE06846FFF775FD010001D03BA031E06F
:1043600006AA02A90220FFF7A1FD050028D1B07816
:10437000042829D03AA008F063FD002402AF06E02B
:10438000395DAFF2FC7008F05BFD641CE4B29DF88F
:1043900018008442F4D3AFF6740008F051FD9DF884
:1043A0000800D72807D0B078032801D1FEF730FAEB
:1043B0000120B07008E00420B070FEF729FA1DB1AA
:1043C00029462CA008F03CFD1849162258315846C1
:1043D00008F086FC07B0BDE8F08F10B5134C2C48F0
:1043E000022120604FF4827060600020A060C4E968
:1043F0000301012161614902C4E906102062606283
:10440000A0620A20E062204601F04BFC08B100F0F7
:10441000D7FF2068016841F04001016010BD4FF4F2
:104420007A71484301F03BBA1C01002000130020C0
:10443000000C01400000000000000000000000002F
:10444000BFA8C6ACD2C6BFAA200D0A00524336365A
:10445000335F53656C656374563A2025640A000027
:10446000B6C1C8A1626C6F636BCAFDBEDD203D2082
:104470000000000052433636335F52656164536971
:104480006E676C65426C6F636B563A2025640A0058
:1044900000300140FEF74BBC1622074908F020BC53
:1044A00000B587B06846FFF7F4FE16226946024859
:1044B00008F016FC07B000BD6E13002010B586B0E2
:1044C000044699B108F0EEF85C493420C860002138
:1044D000012002940091CDE9030104A9684608F087
:1044E0002FF908F0EDF8012006B010BD0020FBE721
:1044F00010B51AB1514C3423E36005E0002010BD23
:1045000010F8013B01F8013B521EF9D2012010BD09
:104510002DE9F0410D464949044656083420484FDC
:10452000C86013E0BC4202D98120BDE8F0812A882E
:1045300000232146012007F0CDFF208829888842EA
:1045400001D08220F1E7A41CAD1C761E002EE9D11B
:104550000120EAE72DE9F74F884686B037498346C0
:104560003420089DC860ABF10064B4F5003F0ED85C
:10457000089860B1B8F1000F09D008F093F8E70A85
:10458000C4F30A06C6F50064A5424DD94DE00020EB
:1045900009B0BDE8F08F402F49D24FF0006000EB2A
:1045A000C72082464FF480622649FFF7A1FF2549C4
:1045B000002001EB060904E019F80010FF2902D1E0
:1045C000401CA042F8D3A0421DD20120CDE9020A2E
:1045D0000026049000960196694601A808F0B0F8FC
:1045E00028BB04E018F8061009F80610761CA6424D
:1045F000F8D350464FF400621249FFF789FF0128B3
:1046000008D16D1E13E0224641465846FFF780FF51
:104610000128F6D1A0440BEB440B2D1B00264FF4D0
:1046200080647F1CA54200D22C46002DB3D108F037
:1046300047F80898401B4006000EA9E700200240FA
:1046400000000208841300202DE9F0419CB00F46C1
:1046500005466C21684608F05CFB00246E46698ABA
:10466000BEA0D5F8088008F0EBFB641CD5F88010DC
:10467000A4B2352060430B6908EB40006A2269460A
:104680009847D0B16821684600F0A6FCB6F86810DB
:10469000884210D1687DF178884201D0BBA003E048
:1046A0003088A04209D0C0A008F0CAFB3C8020207E
:1046B0001CB0BDE8F081C3A0F6E7688A401EA042A6
:1046C000D3DC0020F4E738B50C460021ADF800102B
:1046D000C1490B784BB14A68002012F8231071B120
:1046E000022101EB8000105C38BD6946FFF7ACFF8A
:1046F0001028F9D1BDF800002080202038BD401CD2
:104700000A28ECDB002038BD70B5B34D002102262D
:104710002B786C6806EB8302A25A82420BD10020F0
:1047200004F8210006EB8101605213B15B1E2B706F
:1047300004E0287002E0491C0A29EEDB002070BD6D
:1047400010B50446008A68B9608A0A280AD9682127
:1047500004F1100000F040FCB4F87810884201D158
:10476000012010BD002010BD2DE9F0479CB0884607
:1047700006460027BA466C21684608F0CAFA0024AB
:104780006D46D6F8089032E0641CD6F88010A4B2CA
:10479000352060430B6909EB40006A22694698475F
:1047A000F8B100276821684600F016FCB5F86810DB
:1047B000884213D1707DE978884202D12888A042CE
:1047C00006D02988A8F8001010201CB0BDE8F0879A
:1047D0006A2101A800F0F5FF824608E0A8F8004031
:1047E000F2E77F1CFFB2032F01D3FE20EDE7708AB2
:1047F000A042C9D8D6F81D10514501D0EE20E4E7FB
:104800002988A8F800100020DFE72DE9F34F9DB0BC
:10481000044600266C2168461B9608F07AFA0025AB
:104820006F46D4F8089000F0D6FFDFF8AC814FF067
:10483000020A4FF0010B6D1CADB2352105FB01F0F2
:10484000D4F8801009EB40006A220B69694698474A
:1048500048B36821684600F0BFFBB7F8681088428B
:1048600022D1607DF978884205D01E9805802020ED
:104870001FB0BDE8F08F3888A8420FD0034606B1BC
:104880001E4698F8000042460A281CD251680AEBDE
:10489000800C01F820B021F80C3014E0642101A84C
:1048A00000F082FF1B9011E0398806B10E4698F89F
:1048B000000043460A2806D25A680AEB800C02F828
:1048C00020B022F80C10401C88F80000608A401EBE
:1048D000A842B0DC98F8000080B1618AB1FBF0F02A
:1048E00000EBC00101EB00100521B1EB800F01D2FC
:1048F000FB20BDE71E9806801020B9E7D4F81D10F4
:104900001B98814201D0EE20B2E7D4F88010334DDD
:1049100020680B696A2229689847324930486A2220
:10492000486031480861608AC86150434861D4F8E2
:1049300080102068CB6829689847002098E730B538
:10494000002306E0C45CCD5CAC4201D0812030BDC8
:104950005B1C9342F6DB012030BD00007074686977
:10496000732D3E66775F6D73672E4D736746726178
:104970006D652E417070546F74616C5061636B6132
:104980006765A3BA25640D0A00000000D0A3D1E931
:10499000B0E6B1BE20B2BBC4DCCAB9D3C3B6C1C88D
:1049A000A1B5C4CAFDBEDD00B0FCB2BBC1ACD0F83D
:1049B00020B2BBC4DCCAB9D3C3B6C1C8A1B5C4CA8E
:1049C000FDBEDD00B2BBC4DCCAB9D3C3B6C1C8A149
:1049D000B5C4CAFDBEDD0000240100202C0100206A
:1049E000CD34AB12AC1B0020002000080020704723
:1049F00010B519B101F0C6F8012010BD002010BD9E
:104A000010B50B4632B1014692B2184600F0CDFF08
:104A1000012010BD002010BD10B50B4632B101467B
:104A200092B2184601F050F8012010BD002010BDD0
:104A300010B50B4632B1014692B2184601F009F8A2
:104A4000012010BD002010BD2DE9F0419CB00F46A3
:104A5000804616466C21684608F05BF9CE4D03246B
:104A60003246E86F3946C3684046984701280FD15F
:104A7000D5F880006A2269460369404698470128B4
:104A800006D16A2239466846FFF759FF012806D049
:104A9000641EE4B2E4D2FE201CB0BDE8F081002028
:104AA000FAE7BE4900204FF4006201F8080BBC4B46
:104AB0000DC141F8100C41F814098861C1E90702E1
:104AC00048F24252C1E90920B3492C22C96FCB6890
:104AD000B149091F096818472DE9F0470C4680467F
:104AE0000146AD486A221030814608F0F9F8AA481C
:104AF000FFF726FEF0B1A84D00270126287B0028ED
:104B000047D06A2241464846FFF719FF2E736E735D
:104B10000128EF8111D06A224146484608F0E0F8AA
:104B2000EA6F698A6A2041435268A8689047012861
:104B300022D073E01120BDE8F08721469648FFF7A8
:104B400083FD06462288102196A008F079F9202ED0
:104B500006D03EB16A2241462868FFF775FF47E05C
:104B6000208851E0688A2080401EE8816A22414600
:104B70002868FFF769FF49E06A224146A868FFF705
:104B800063FF00284AD16A2241462868FFF75CFF8C
:104B90004EE0D5F88010A8686A220B69494698470C
:104BA00001283BD16A2241464846FFF7C8FE2E73D2
:104BB0006E730128EF810ED06A224146484608F004
:104BC0008FF8EA6F698A6A2041435268A868904763
:104BD00001281DD022E021466F48FFF735FD06462B
:104BE000014622887BA008F02BF9202E02D04EB17E
:104BF0003046A0E720883146401EE88181A008F0B9
:104C00001FF903E0688A2080401EE881102092E7A7
:104C10006A224146A868FFF717FF08B1FE208AE71D
:104C20006A2241462868FFF70FFF7BA008F008F9C9
:104C3000002080E770B5584D0446287B10B101284C
:104C400005D006E0E078BDE8704000F075B80220BD
:104C5000287321883520AA68484302EB4006EA8978
:104C600072A008F0EDF8E8892188401C814214D137
:104C70006821204600F0B0F9B4F8681088420CD1E1
:104C8000E078697D884208D1E8892146401CE881A6
:104C90003046BDE870406A22D6E6122070BD01465B
:104CA0003D48FFF7B2BDF8B5044600203A4DADF8D7
:104CB00000000E46EA8921886AA0521C08F0C0F85C
:104CC000E8892188401C814226D16821204600F0D5
:104CD00083F9B4F8681088421ED1E078697D884273
:104CE0001AD120886A2240432146FFF7ADFE0028F2
:104CF00011D169462846FFF7A7FCE989491CE981DB
:104D0000002808D0BDF800003080BDF800105EA07B
:104D100008F096F82020F8BD1220F8BD08B51E490D
:104D20005D4800900868D1F884100422CB68694679
:104D3000984707F0C8FAFEE770B59CB00D460646E6
:104D40006C21684607F0E5FF134C00206A22E081E1
:104D50002073D4F88010A0680B6969469847012831
:104D600002D0FE201CB070BD0B48FFF7E9FC88B1F3
:104D7000607DB04201D0EB20F4E70120607329464A
:104D80000548FFF761FC2028ECD12888401EE0810F
:104D90001020E7E7EE20E5E730010020AC1B002003
:104DA00000200008696E666F206961705F6672613D
:104DB0006D655F696E666F28292D3E2072657430BF
:104DC0003A253034783B2066775F69643D2530347E
:104DD000780D0A00696E666F206961705F667261A6
:104DE0006D655F696E666F28292D3E207265743A85
:104DF000253034783B2066775F69643D2530347810
:104E00000D0A0000B4D3B5DA2564B0FCBFAACABC51
:104E1000C9FDBCB60D0A0000B4D3B5DAD2BBB0FCF4
:104E2000BFAACABCC9FDBCB6000000006961705FC2
:104E30006672616D655F6461746128292D3E20464C
:104E400072616D65537465703A253034783B206625
:104E500072616D655F737465703D253034780D0A3D
:104E60000000000064206672616D20737465703DFF
:104E7000253034782C20706172616D2073746570F8
:104E80003D253034780D0A006E656564506B673DD2
:104E9000253034780D0A0000CD34AB12052801D935
:104EA000FF207047334900EB800001EB8000407821
:104EB0000128F6D000207047052806D800EB8001B5
:104EC0002C4800EB8100C16881607047052806D836
:104ED000284A00EB800002EB8000012141707047FE
:104EE000052808D800EB8001224800EB8100C1684A
:104EF0008160022141707047052807D800EB8002CD
:104F00001C4800EB8200816001214170704710B5A0
:104F1000184C002101EB810304EB83004278012A45
:104F20000CD1826852B1521E826007D1C268826081
:104F30004268521C4260012004F82300491CC9B297
:104F40000529E7D310BD70B50A4C002101EB8102A1
:104F500014F822204AB101EB810504EB85010969AF
:104F60008847002004F8250070BD491CC9B20529F6
:104F7000ECD370BDD401002030B5034600200C24D2
:104F80000DE013F8012B50400022C50702D084EA3F
:104F9000500000E04008521CD2B2082AF5D3491E46
:104FA000EFD230BD70B504460023184659B107252D
:104FB000491E09D3E25C504000225B1C060604D562
:104FC00085EA400002E0002070BD4000521CD2B2D1
:104FD000C0B2082AF2D3EBE770B5044600231846A6
:104FE00061B148F20845491E09D3E25C50400022F5
:104FF0005B1CC60704D085EA500002E0002070BDAB
:105000004008521CD2B2082AF3D3ECE770B5002452
:10501000621E59B1174D491E10D3035D5A4000233B
:10502000641CD60704D085EA520202E0002070BD5D
:1050300052085B1CDBB2082BF3D3ECE7D04370BD06
:1050400030B504460023581E61B10B4D491E0AD3EA
:10505000E25C80EA026000225B1C002804DA85EA38
:10506000400002E0002030BD4000521CD2B2082AAD
:10507000F3D3EBE72083B8EDB71DC104002800D0BF
:105080000C30704748B141B13AB1016082800021D3
:10509000C18001814181012070470020704770B5B7
:1050A0000C4605461021012007F03EFE40B13DB1FF
:1050B00034B1056084800021C1800181418170BDCF
:1050C000002070BD002804D0C1880089814201D130
:1050D000002070470120704730B558B151B1C288E7
:1050E00083881446521CB2FBF3F503FB1522038997
:1050F0009A4201D1002030BD026809781155C1885B
:105100008288491C89B2B1FBF2F302FB1311C18002
:105110004189491C4181012030BD20B119B1C388AA
:105120000289934201D10020704703689A5C0A709B
:1051300001898288491C89B2B1FBF2F302FB131189
:105140000181418901B1491E418101207047000060
:1051500040F2DD7107F0DDBD90F8DC07704770B5F7
:10516000284D04460E46287800282FD101202870AB
:1051700094F8DC070A2811D394F8DB07C92100FB57
:10518000014007F0C6FD94F8DB070A21401CB0FB84
:10519000F1F201FB120084F8DB0702E0401C84F806
:1051A000DC0794F8DA07C92100FB01400A463146C2
:1051B00007F096FD94F8DA070021401CC0B284F88D
:1051C000DA070A2801D384F8DA17297070BD10B500
:1051D000044690F8DB07C92100FB014007F099FD68
:1051E00094F8DC07401E84F8DC0794F8DB07401CC9
:1051F000C0B284F8DB070A2802D3002084F8DB075A
:1052000010BD00004C02002040F2DD7107F081BDAE
:1052100090F8DC07704770B5284D04460E46287894
:1052200000282FD10120287094F8DC070A2811D318
:1052300094F8DB07C92100FB014007F06AFD94F8F0
:10524000DB070A21401CB0FBF1F201FB120084F8DD
:10525000DB0702E0401C84F8DC0794F8DA07C92178
:1052600000FB01400A46314607F03AFD94F8DA07A0
:105270000021401CC0B284F8DA070A2801D384F860
:10528000DA17297070BD10B5044690F8DB07C92104
:1052900000FB014007F03DFD94F8DC07401E84F858
:1052A000DC0794F8DB07401CC0B284F8DB070A284F
:1052B00002D3002084F8DB0710BD00004D0200205F
:1052C00025480068704710B54FF47A7005F03AFC35
:1052D00000F016F800F0E6F900F0AAFC4FF4E13413
:1052E000204600F06EF84FF4165000F087F8204684
:1052F00000F0ABF8FFF7CEF8BDE8104000F0FEBAC2
:10530000164808B5816941F004018161816901F0A5
:1053100004010091816941F008018161816901F016
:1053200008010091816941F010018161816901F0FA
:1053300010010091816941F020018161816901F0D2
:1053400020010091816941F040018161806900F094
:105350004000009008BD0000F0F7FF1F0010024061
:1053600010B50446C34800686160206142680121AD
:10537000C1489047E060206901214268BE48401C56
:105380009047A06010BD40684160BC4902680A4275
:10539000FCD0704770B514460D460646002304E065
:1053A000E95C3046FFF7EFFF5B1CA342F8DB70BD02
:1053B00013B5D0E9032001A9C368104698471CBD66
:1053C000704710B5AF4CAE49C4E900100020A06092
:1053D0000C21E060C4E90401A061E061204604F012
:1053E00081FC2068C16841F01001C160A4F596718C
:1053F0002046BDE81040962204F051BF7FB502213F
:10540000064601200025CDE90010CDE9025169468C
:105410009D4806F077F89B4C9C4840342060C4E9D6
:1054200001650C20E560C4E904502046A56104F044
:1054300059FC2068C16841F01001C1609622A4F1B6
:10544000D601204604F02BFF7FBD10B58D4C90494E
:105450008034C4E900100020A0600C21E060C4E9A1
:105460000401A061E061204604F03CFC2068C168B2
:1054700041F40051C16010BD70B50E46054600688C
:105480007F49144688420BD1A2B2642331467D483D
:1054900004F05FFD7B4803681868C0434006FBD4F6
:1054A0007A49286888420DD17648A2B264233146F1
:1054B000403004F04EFD7348403000680168C94335
:1054C0004906FBD47249286888420DD16D48A2B2C2
:1054D00064233146803004F03CFD6A488030006827
:1054E0000168C9434906FBD470BD70B5664C0D46D2
:1054F000064601220221204606F059F961482A4653
:1055000031464030FFF7B8FF2046BDE8704000222A
:10551000022106F04CB90A4601465A48ACE770B57C
:1055200000685749B4B088421ED1534C002520462C
:10553000E1780078D1B1012916D1564E2179705405
:10554000491CCAB2227103280ED1501E8DF80000EA
:1055500031460DF10100521E07F0C2FB6846FDF70F
:10556000C6FA25713580E57034B070BD0228FBD1D4
:1055700025710120E070F7E73F49002088707047EF
:1055800010B5B4B03F4805F039F93E4800680168ED
:10559000C943C90620D4016840683390394804F0F3
:1055A00025FF3848C03000684068334C962239499E
:1055B000A060C0F1960060710120A071314804F034
:1055C0006EFE62798DF8002032490DF1010007F07E
:1055D00087FB6846FDF78BFA34B010BD10B529483B
:1055E000B4B0403005F00AF9264840300068016840
:1055F000C943C906F0D4016840683390214840305F
:1056000004F0F4FE2448006840681B4C1D499622B3
:10561000A060C0F196006071963901F1D60004F0E7
:105620003EFE184962798DF8002096390DF101008F
:1056300007F056FB6846FDF729F9CDE738B5044673
:105640008DF800000F484FF47A73012269468030CC
:1056500004F07FFC204638BD70B50D460646002498
:1056600004E0315D0DA007F0EBFB641CAC42F8DBFD
:1056700070BD00006CD300085002002080000010B4
:1056800000380140041D0020000801400044004093
:1056900000480040D81B0020081E0020253032782A
:1056A000200000002DE9FF41022500274FF418706B
:1056B000012403958DE89100DFF89C8069464046FF
:1056C00005F020FF2602CDE9006469462348CDE9B4
:1056D000024505F017FF1020CDE900046946404659
:1056E000CDE9024505F00EFF01221021404606F0EB
:1056F0005EF8CDE90064CDE902756946404605F0E3
:1057000001FF01223146404606F051F8BDE8FF8115
:10571000114B08B1012200E000221021184606F0CA
:1057200046B870470C4B4FF4807108B1012200E07D
:105730000022184606F03BB8084B4FF4807108B1C0
:10574000012200E00022184606F031B84FF48071C3
:10575000024806F031B80000000C0140000801408A
:1057600070B51F4DFF231A4605F5807605E010F849
:10577000014B54402A5D5A40335D491EC9B2F6D2EE
:1057800042EA032070BD174882B0416941F04001F0
:1057900041614069154900F04000009012480860DE
:1057A000084602B007F0DBB90F4B10B501229A6032
:1057B000002202E0845C1C60521C8A42FADB1868FA
:1057C00010BD70B50C460546FFF7DDFF21462846A3
:1057D000BDE87040E8E70449012088607047000098
:1057E00070D3000800100240003002405C0200202C
:1057F00010B5224886B04FF0804101604721002457
:10580000C0E901144FF47A71C0E9031401F057FCA8
:105810004FF4805000906946184803F01AFB049436
:1058200004A91648059404F09EF906B010BD08B509
:105830000068B0F1804F12D11148C16941F00101F7
:10584000C161C069002200F00100009001211C200C
:1058500006F0FDFCBDE808401C2006F016BD08BDA2
:105860000068B0F1804F07D10548C16921F00101FE
:10587000C1611C2006F016BD704700004C1E0020C0
:1058800000100240002103E000BF00BF00BF491C20
:105890008142F9D370474FF47A714843F2E700220E
:1058A00004E00A21491EC9B2FCD2521C8242F8D33C
:1058B0007047000070B5D64E4FF080500024306025
:1058C000902000F097F9002000F094F9002000F0FB
:1058D00091F9002000F08EF9FF2000F08BF944EAE6
:1058E0000025FF2000F086F940EA0504B01430607E
:1058F0002146C8A007F0A4FA204670BD10B5CB4CD5
:10590000C9484FF4007120604FF48270606000203D
:10591000A060E0602061C4E905011021C4E907101E
:105920006062A0620720E062204600F0BAF908B188
:10593000FFF746FD2068016841F040010160BDE8C5
:105940001040B7E710B5B24C4FF0805020600520F2
:1059500000F050F9FF2000F04DF9A114216010BDB6
:1059600070B5AB4C4FF0805105462160012000F02E
:1059700041F9284600F03EF9A014206070BD10B532
:10598000A34C4FF080502060062000F033F9A014A3
:10599000206010BD10B59E4C4FF080502060042058
:1059A00000F028F9A014206010BD2DE9F041984FB7
:1059B00006464FF0805015460C463860032000F034
:1059C00019F9C4F3074000F015F9C4F3072000F0FB
:1059D00011F9E0B200F00EF9002405E0FF2000F01C
:1059E00009F93055641CA4B2AC42F7D34FF480508F
:1059F0003860BDE8F08110B5FFF7A4FFC007FBD108
:105A000010BD2DE9F04115460C460646FFF7B7FFDD
:105A10007F4F4FF080503860022000F0EBF8C4F365
:105A2000074000F0E7F8C4F3072000F0E3F8E0B225
:105A300000F0E0F8002404E0305D00F0DBF8641CC6
:105A4000A4B2AC42F8D34FF480503860BDE8F041C6
:105A5000D1E72DE9F0410746C8B2C0F580740E4683
:105A60001546A24200D814464FF4807822463146AB
:105A70003846FFF7C6FFA542BBD0281B2744264463
:105A800085B24446A542F1D82C46EFE7B1E770B5A0
:105A90000403FFF774FFFFF7AEFF5D4D4FF080503A
:105AA0002860202000F0A6F8C4F3074000F0A2F818
:105AB000C4F3072000F09EF8E0B200F09BF8A814B1
:105AC0002860BDE8704096E72DE9F05FDFF85C8163
:105AD000C1F30B060F0BC6F580548A468146154666
:105AE00008F15808A24200D8144639038B464FF4F7
:105AF00080524046FFF759FF002006E0321818F8A0
:105B00000210FF2903D1401C80B2A042F6D3A0426C
:105B100021D23846FFF7BBFF002006E019F800202D
:105B20008319401C08F8032080B2A042F6D35946DE
:105B30004FF480524046FFF78CFFA5420FD0281B40
:105B4000A144A244002685B24FF480547F1CA54294
:105B5000CBD82C46C9E7224651464846EBE7BDE87C
:105B6000F09F10B5FFF70BFFFFF745FF284C4FF0F4
:105B700080502060C72000F03DF8A0142060BDE8F0
:105B8000104038E770B50646012000EB11350024BF
:105B900004E006EB0430FFF77AFF641CAC42F8D354
:105BA00070BD10B51A4C4FF080502060B92000F045
:105BB00021F8A0142060BDE81040032000F00FB8C9
:105BC00010B5134C4FF080502060AB2000F012F85D
:105BD000A0142060BDE810400320AFF3008009222C
:105BE00005E0002100BF491C4829FBDB521C824212
:105BF000F7DB70470C4908310A689207FCD50A4A5E
:105C00000C3210600868C007FCD01068C0B2704742
:105C1000100C014077323571206964203D20253415
:105C200078200D0A00000000003800408C1E002083
:105C3000114808B5416941F001014161416901F034
:105C400001010091416941F0020141614069002276
:105C500000F00200009011460F2006F0F8FA0F2025
:105C600006F013FB00221146102006F0F0FABDE802
:105C70000840102006F009BB00100240064880478B
:105C800006480047FEE7FEE7FEE7FEE7FEE7FEE721
:105C9000FEE7FEE7FEE7FEE715CC0008312100082D
:105CA000704770B5040005D00025A56294F8510036
:105CB00010B106E0012070BD84F850502046FCF77A
:105CC0008EFA022084F851002068016821F040011A
:105CD0000160D4E901010843D4E9031211430843E8
:105CE00061690843218B01F400710843E1690843AD
:105CF000216A0843A16A084321680860A069042159
:105D000001EA1040216848602068C16921F40061FF
:105D1000C1616565012084F85100002070BD7047A5
:105D200010B5040011D0022084F8510020680168E9
:105D300021F0400101602046FCF7B1FA00206065C7
:105D400084F8510084F8500010BD012010BD2DE9E9
:105D5000F0411D4617460E460446DDF8188008E05F
:105D6000681C06D004F0D7FEA0EB0800A8420BD2B6
:105D700055B12068806836EA000030D00020B84273
:105D8000EED10020BDE8F0812068416821F0E001FB
:105D900041606068B0F5827F0BD1A068B0F5004F1C
:105DA00002D0B0F5806F04D12068016821F0400175
:105DB0000160A06AB0F5005F09D12068016821F494
:105DC000005101602068016841F400510160012028
:105DD00084F85100002084F850000320D2E701200D
:105DE000CDE72DE9F84F044690F8500000261D46F7
:105DF0009046894601280ED04FF0010B84F850B030
:105E000004F089FE074694F851004146B246012845
:105E100004D002268FE00220BDE8F88FB9F1000F10
:105E20006FD0B8F1000F6CD0032084F85100C4F893
:105E300054A0C4F83090A4F83480A4F83680C4F894
:105E400038A0A4F83CA0A4F83EA0C4F844A0C4F82C
:105E500040A0A068B0F5004F04D12068026842F469
:105E60008042026020680268520603D4026842F051
:105E700040020260E068B0F5006F606803D028B3AC
:105E8000012923D03FE008B101291BD1206B2168F3
:105E90000088C86006E020688168890709D5216B01
:105EA0000988C160206B801C2063E08E401EE08664
:105EB00008E004F030FEC01BA84202D3681C01D0E9
:105EC00030E075B3E08E0028E5D11FE0206B21683B
:105ED0000078087306E020688168890709D5216B7E
:105EE00009780173206B401C2063E08E401EE08621
:105EF00009E004F010FEC01BA84203D3681C02D0C6
:105F000010E017E06DB1E08E0028E4D13A46294652
:105F1000204601F084F808B120206065A06818B11F
:105F200006E0FFE7032606E02068C168806800906D
:105F3000606D00B1012684F851B084F850A030465D
:105F40006AE7F8B5044640684FF48273984217D167
:105F5000A0684FF48065B0F5004F01D0A8420FD182
:105F60002068066826F0400606606068984207D1FF
:105F7000A068A84204D100920B460022012103E050
:105F800000920B46002280212046FFF7E0FE002809
:105F900004D0606D40F0200060650320F8BD2DE95D
:105FA000F84F044690F8500001250A9E1F4692467D
:105FB0008B464FF0000801280ED0012084F85000D5
:105FC00004F0A9FD814694F85100616801280BD0C6
:105FD000B1F5827F06D101E002201DE7A16809B971
:105FE000042801D00220B6E0BBF1000F27D0BAF19F
:105FF000000F24D01FB394F85100042802D00520CC
:1060000084F8510000206065C4F838A0E787A787AE
:10601000C4F830B0E786A786206460642068016811
:10602000490603D4016841F040010160E068B0F521
:10603000006F606805D0E8B3012F43D079E00120FC
:1060400089E008B1012F34D1206B21680088C86035
:10605000206B801C2063E08E401EE08629E02068D3
:10606000816889070DD5E18E59B1012D09D1216BC8
:106070000988C160206B801C2063E08E401EE08692
:10608000002520688168C9070BD0E18F49B1C0683D
:10609000A16B0880A06B801CA063E08F401EE0878E
:1060A000012504F038FDA0EB0900B04201D3701CBB
:1060B00050D100E006E0E08E0028D0D1E08F00282B
:1060C000CDD13CE0206B216800780873206B401C28
:1060D0002063E08E401EE0862BE0206881688907FF
:1060E0000DD5E18E59B1012D09D1216B09780173CC
:1060F000206B401C2063E08E401EE0860025206857
:106100008168C9070BD0E18F49B1C068A16B0870E5
:10611000A06B401CA063E08F401EE087012504F0C7
:10612000FAFCA0EB0900B04202D3701C01D011E0D0
:1061300086B1E08E0028D0D1E08F0028CDD14A462C
:106140003146204600F06BFF38B120204FF00108A7
:10615000606508E00320804605E0A06818B9206863
:10616000C16880680090012084F85100002084F804
:106170005000404650E62DE9F84F0446406800269E
:106180001D46904689464FF0040BB0F5827F01D141
:10619000A06888B194F85000012816D0012084F836
:1061A000500004F0B8FC074694F851004FF0000A84
:1061B00001280CD0022678E084F851B000931346F1
:1061C0000A462046FFF7EBFE26E6022024E6B9F158
:1061D000000F69D0B8F1000F66D084F851B0C4F850
:1061E00054A0C4F83890A4F83C80A4F83E80C4F8C9
:1061F00030A0A4F834A0A4F836A0C4F840A0C4F895
:1062000044A0A068B0F5004F04D12068016821F4D3
:106210008041016020680168490603D4016841F0AB
:1062200040010160E068B8B131E020688168C907C9
:1062300009D0007BA16B0870A06B401CA063E08FAD
:10624000401EE08708E004F066FCC01BA84202D3B1
:10625000681C01D031E07DB3E08F0028E5D119E062
:1062600020688168C90709D0C068A16B0880A06B4D
:10627000801CA063E08F401EE08708E004F04BFC28
:10628000C01BA84202D3681C01D016E0A5B1E08F64
:106290000028E5D13A4629462046FFF752FE08B1CC
:1062A00020206065606D00B10126012084F8510056
:1062B00084F850A03046AFE5FFE70326F5E77047C6
:1062C000704738B50446FD4845F6C0510068B0FB3C
:1062D000F1F064214843009004F01DFC0246206860
:1062E0000099A1B1491E009181688907F8D54168DC
:1062F00021F0A00141606421204600F090FE18B119
:10630000606D40F020006065A06828B108E0616D14
:1063100041F020016165EAE72068C168806800906B
:10632000012084F85100606D0028204602D0FFF75C
:10633000C7FF38BDFFF7C3FF38BD016B026809789E
:106340001173016B491C0163C18E491EC186C18E48
:10635000002900D1B5E77047016B02680988D16058
:10636000016B891C0163C18E491EC186C18E002943
:1063700000D1A6E7704730B590F850400023012CBB
:106380000BD0012480F85040002441B13AB190F87C
:106390005150012D05D002232AE0022030BD0123F7
:1063A00026E0032580F85150446501638286C28649
:1063B00084638487C4870464C16809B1C04900E06C
:1063C000C04941648168B1F5004F04D101680A6891
:1063D00042F480420A6001684A6842F0A0024A60C2
:1063E00001680A68520603D40A6842F040020A6053
:1063F00080F85040184630BD704738B504460068F4
:10640000416821F06001416004F085FB024664218F
:106410002046FFF796FD18B1606D40F020006065E2
:10642000A06818B92068C16880680090012084F8CD
:106430005100606D0028204602D0FFF741FF38BDB3
:10644000FFF7DAFF38BD0168097B826B1170816B41
:10645000491C8163C18F491EC187C18F002900D1AA
:10646000CBE770470168C968826B1180816B891C1A
:106470008163C18F491EC187C18F002900D1BCE74C
:106480007047704738B504468C4845F6C0510068DF
:10649000B0FBF1F064214843009004F03CFB02465D
:1064A0002068416821F020014160009888B1401EB9
:1064B0000090206880688007F7D56421204600F0AE
:1064C000AEFD18B1606D40F020006065A06828B195
:1064D00008E0606D40F020006065EEE72068C1686C
:1064E00080680090616D012029B184F85100204638
:1064F000FFF7E6FE38BD94F8511084F851000429E6
:10650000204602D0FFF7BDFF38BDFFF775FF38BD4D
:10651000016B026809781173016B491C0163C18E1C
:10652000491EC186C18E002908D101684A6822F03F
:1065300080024A60C18F002900D1A3E7704701683B
:10654000097B826B1170816B491C8163C18F491E6D
:10655000C187C18F002908D101684A6822F0600212
:106560004A60C18E002900D18CE77047016B026838
:106570000988D160016B891C0163C18E491EC186E7
:10658000C18E002908D101684A6822F080024A6061
:10659000C18F002900D175E770470168C968826B17
:1065A0001180816B891C8163C18F491EC187C18F96
:1065B000002908D101684A6822F040024A60C18E71
:1065C000002900D15EE77047F0B590F850500024E4
:1065D000012D0CD0012580F8505090F85150002624
:1065E0004768012D0BD0B7F5827F06D101E002206C
:1065F000F0BD87680FB9042D01D0022429E0A9B1AC
:10660000A2B19BB190F85150042D02D0052580F81D
:106610005150466501638386C38682638387C3873F
:10662000C16829B128490164284904E0012410E027
:10663000274901642749416401684A6842F0E00241
:106640004A6001680A68520603D40A6842F04002B0
:106650000A6080F850602046F0BDF0B400238568E1
:1066600004261DB94468B4F5827F0DD090F85040DF
:10667000012C0FD0012480F8504090F85170002474
:10668000012F0AD0022342E080F85160F0BC13468B
:106690000A4699E70220F0BC704771B16AB180F8F0
:1066A0005160446581638287C28704638486C4869F
:1066B0004464C168A1B1084913E00FE070020020F2
:1066C000596300083B6300089B6500086D6500087E
:1066D0003F6500081165000865640008012316E0A5
:1066E000FE490164B5F5004F04D101680A6822F43F
:1066F00080420A6001684A6842F060024A600168AC
:106700000A68520603D40A6842F040020A6080F820
:1067100050401846BFE710B5406A01684A6822F049
:1067200003024A60416D41F010014165012180F88A
:106730005110FFF7C5FD10BD38B50546446A04F099
:10674000EAF9024628680068800623D42068416878
:1067500021F0200141602068416821F00201416080
:106760006421204600F05BFC18B1606D40F0200011
:106770006065A068002118B92068C2688068009030
:10678000E186012084F85100606D18B12046FFF7C2
:1067900097FD38BD2046FFF792FD38BD704710B514
:1067A000406AFFF7FBFF10BD2DE9F041044690F869
:1067B00050000025012809D0012784F8507094F872
:1067C00051000026012804D0022549E00220BDE83E
:1067D000F08189B182B1032084F85100666521639C
:1067E000A286E286A66366642664A687E687A0681A
:1067F000B0F5004F02D006E0012531E020680168C5
:1068000041F480410160A16CB548C862A16CB548F3
:106810008862A16CB4480863A06C4663E38E22686A
:10682000216B0C32A06C05F0AEF838B1606D40F011
:1068300010006065012584F8517011E0206801683E
:10684000490603D4016841F04001016020684168B5
:1068500041F0200141602068416841F0020141603F
:1068600084F850602846B2E770B50546446A04F0E3
:1068700052F902462868006880061BD420684168E7
:1068800021F0200141602068416821F0030141604E
:1068900064212046FFF755FB08B1202060650020E9
:1068A000E087012084F85100606D18B12046FFF7A1
:1068B00007FD70BD2046FFF79FFD70BD704710B506
:1068C000406AFFF7FBFF10BD70B50546446A04F04F
:1068D00022F902462868006880061ED420684168B4
:1068E00021F0200141606421204600F098FB18B19E
:1068F000606D40F0200060652068416821F0030170
:1069000041600020E086E087012084F85100606D3E
:1069100018B12046FFF7D4FC70BD2046FFF7B1FD4B
:1069200070BD704710B5406AFFF7FBFF10BD2DE941
:10693000F041044690F85000002501280DD00126B2
:1069400084F8506094F851000027D4F804C001285E
:106950000ED0BCF5827F09D101E0022037E7D4F8E0
:1069600008C0BCF1000F01D1042801D0022560E06D
:1069700049B342B33BB394F85100042802D0052038
:1069800084F8510067652163A386E386A263A38729
:10699000E3872764676494F85100042815D0E16CFC
:1069A0005248C8625248E16C8862E16C4E48086304
:1069B000E06C4763E38F2168A26B0C31E06C04F05C
:1069C000E2FFE0B906E0012533E0E16C4948C86226
:1069D0004948E8E72068416841F001014160A06C46
:1069E000C762A06C8762A06C0763A06C4763E38EEC
:1069F0002268216B0C32A06C04F0C5FF38B1606DC9
:106A000040F010006065012584F8516011E02068B5
:106A10000168490603D4016841F040010160206823
:106A2000416841F0200141602068416841F0020165
:106A3000416084F850702846C9E62DE9F0410446CB
:106A400000258068042318B96668B6F5827F0ED0E9
:106A500094F85060012E12D0012784F8507094F8F9
:106A600051C00026BCF1010F0BD002255FE084F875
:106A700051302046BDE8F04113460A4657E7022050
:106A8000A5E671B16AB184F851306665A163A28749
:106A9000E28726646664A686E686B0F5004F02D0DB
:106AA00006E0012543E02068016821F4804101608F
:106AB000E16C1048C862E16C0F488862E16C0A48DA
:106AC0000863E06C4663E38F2168A26B0C31E06CD5
:106AD00004F059FFC8B1606D10E000004764000881
:106AE0009F670008396700081767000825690008D4
:106AF000C9680008BF6800086968000840F0100015
:106B00006065012584F8517011E02068016849062C
:106B100003D4016841F0400101602068416841F000
:106B2000200141602068416841F00101416084F822
:106B3000506028464BE6F74908B5096845F6C0524B
:106B4000B1FBF2F16422514300910168009A9AB1BD
:106B5000521E00928A689207F8D50A6822F0400215
:106B60000A6001684A6822F0E0024A600168C96868
:106B7000072180F8511008BD426D42F04002426585
:106B8000EBE701684A6822F080024A6001680A68FF
:106B900022F040020A60072180F8511070472DE969
:106BA000FC410446DB4845F6C05100260068B0FBB6
:106BB000F1F064214843019000902068416821F081
:106BC000200141602168486800060CD5D248606405
:106BD000009800285AD0401E009094F851000728D1
:106BE000F6D101980090486840060BD5CB48206448
:106BF0000098E8B3401E009094F851000728F7D1A0
:106C00000198009048684FF0400780074FF000055A
:106C100014D5A06C90B14563A06C04F0ECFE00B1FB
:106C200067652068416821F0020141602068009991
:106C300089B3491E009181688907F8D520684068AA
:106C4000C00711D0E06C78B14563E06C04F0D3FE6E
:106C500000B167652068016821F04001016020688B
:106C6000416821F001014160E587E586606D00E043
:106C700012E040281AD065652068C16880680090DD
:106C8000012084F851003046BDE8FC81606D40F081
:106C900040006065A5E704E0606D40F0400060657D
:106CA000AEE7606D40F040006065C7E70126E3E7AE
:106CB000704738B5446A2068016821F040010160DE
:106CC000E06C002545632068416821F001014160C6
:106CD00003F021FF02466421204600F0A0F918B11C
:106CE000606D40F040006065A06C10B1406B002802
:106CF0000FD1E587E586606D402800D06565206886
:106D0000C16880680090012084F851002046FFF798
:106D1000CFFF38BD08B5406A002245F6C053816CEC
:106D20004A637C490968B1FBF3F16423594300913C
:106D300001684B6823F002034B600099D1B1491EF2
:106D40000091016889688907F7D5C16C11B1496B59
:106D500000290ED1C287C286416D402900D042650C
:106D60000168CA6889680091012180F85110FFF715
:106D70009FFF08BD416D41F040014165E5E72DE908
:106D8000FC410446634845F6C051002600680125D1
:106D9000B0FBF1F064214843019000902068416805
:106DA00021F0200141602168486800060BD55A484F
:106DB00060640098F8B1401E009094F851000728D4
:106DC000F7D101980090486840060BD553482064DD
:106DD0000098A8B1401E009094F851000728F7D100
:106DE00001980090A06C002780B1496889070CD5F4
:106DF0004B4941630AE0606D40F040006065E0E7A8
:106E0000606D40F040006065EAE74763E06C38B1D0
:106E100021684968C90702D04249416300E04763DD
:106E2000206840684FF0400880070AD5A06C40B148
:106E300004F004FE20B1A06C4763C4F8548000E065
:106E4000002520684068C00708D0E06C30B104F02D
:106E5000F5FDA0B1E06C4763C4F854807DB1E787CD
:106E6000E786606D40280CD067652068C16880683F
:106E70000090012084F851002046FFF719FF3046AA
:106E800002E70126F1E790F8501001290CD001210A
:106E900080F8501001684A6822F003024A6000211D
:106EA00080F85010084670470220704790F8501044
:106EB00001290CD0012180F8501001684A6842F085
:106EC00003024A60002180F85010084670470220F3
:106ED000704770B50446806C002538B104F08BFD16
:106EE00020B1606D40F0100060650125E06C38B1A4
:106EF00004F081FD20B1606D40F010006065012557
:106F00002068416821F003014160012084F85100AC
:106F1000284670BD70020020836B0008376B0008A4
:106F2000156D0008B36C000810B5406A0021C187D8
:106F3000C186FFF7C5F910BD38B504460068426840
:106F40008168C9434B0606D5CB0704D1D3435B0602
:106F500001D4216C05E08B0708D4D3431B0605D46C
:106F6000616C01B02046BDE8304008478B0601D572
:106F70004B0646D4D3439B0643D44B060AD494F81D
:106F80005130032B3ED0636D43F004036365C36847
:106F900083680093890609D4616D41F00101616540
:106FA00081680091016821F040010160606D002856
:106FB00027D02068416821F0E0014160012084F879
:106FC0005100900722D02068416821F00301416000
:106FD0001B4DE06C40B14563E06C04F02FFD18B12F
:106FE000606D40F040006065A06C002809D04563EA
:106FF000A06C04F023FD002803D0606D40F0400039
:10700000606538BDC1688068009038BD2046FFF7D4
:1070100057F938BD90F851007047406D704738B54A
:107020000B460092044600228021FEF790FE0028C5
:1070300004D0606D40F020006065032038BD000082
:10704000296F0008F0B50268F64DF74EF74FDFF8EC
:10705000E0C3F84B4FF0804EA84209D0984207D0C9
:10706000704505D0B04203D0B84201D0604503D18D
:1070700022F070044A682243A84209D0984207D0FF
:10708000704505D0B04203D0B84201D0604503D16D
:1070900022F44074CA6822434C6922F080022243E1
:1070A00002608A68C2620A688262A84201D098427D
:1070B00001D10969016301214161F0BD704710B53B
:1070C000040003D094F83D0010B107E0012010BD8A
:1070D000002084F83C002046FEF7A9FB022084F83B
:1070E0003D00211D2068FFF7ADFF012084F83D0021
:1070F000002010BD704710B50446022084F83D0002
:107100002068016A41F21112114207D1016A9210FE
:10711000114203D1016821F0010101602046FEF710
:107120009FFB002084F83D0084F83C0010BD022144
:1071300080F83D1001688A6802F00702062A03D031
:107140000A6842F001020A60012180F83D10002027
:107150007047022180F83D1001680A6A41F211135C
:107160001A4207D10A6A9B101A4203D10A6822F018
:1071700001020A60012180F83D100020704701687B
:10718000CA6842F00102CA600068816801F0070124
:10719000062903D0016841F0010101600020704719
:1071A0000168CA6822F00102CA600068016A41F2FF
:1071B0001112114207D1016A9210114203D10168E4
:1071C00021F00101016000207047704710B5406A4E
:1071D000012180F83D10FFF7F8FF10BD704710B592
:1071E000406A012180F83D10FFF7F8FF10BD70479D
:1071F00010B5406A012180F83D10FFF7F8FF10BD7F
:1072000070B5044690F83D0002281CD094F83D006B
:10721000012804D101B9AAB9022084F83D00236AEB
:1072200085489862236A8548D862AFF25F00236A76
:10723000186320681346256A00F12C02284604F0E2
:10724000A2FB08B1012070BD2068C16841F48071C3
:10725000C1602068816801F00701062903D0016838
:1072600041F001010160002070BD10B504460068C6
:10727000C16821F48071C160206A04F0DFFB2068DE
:10728000016A41F21112114207D1016A92101142B2
:1072900003D1016821F001010160012084F83D0063
:1072A000002010BD704710B5040003D094F83D00D5
:1072B00010B107E0012010BD002084F83C002046FA
:1072C000FFF7F0FF022084F83D00211D2068FFF742
:1072D000B9FE012084F83D00002010BD704710B5B4
:1072E0000446022084F83D002068016A41F2111230
:1072F000114207D1016A9210114203D1016821F0B5
:10730000010101602046FFF7E9FF002084F83D00FD
:1073100084F83C0010BD10B501F01F010123046A80
:107320008B409C430462036A8A401343036210BD8E
:1073300010B5044600680122FFF7EDFF39482168C7
:10734000814202D03B48814203D1486C40F4004066
:1073500048642068816801F00701062903D00168AC
:1073600041F001010160002010BD10B50446006825
:107370000022FFF7D0FF2B4841F211122168931031
:10738000814202D02B48814209D1086A104206D1BD
:10739000086A184203D1486C20F400404864206811
:1073A000016A114206D1016A194203D1016821F034
:1073B00001010160002010BD10B50268044631B122
:1073C000042908D0082925D00C2908D126E0D06846
:1073D00040F0020002E0D06840F00400D0600122DA
:1073E0002068FFF798FF0F492068884202D01149B2
:1073F000884203D1416C41F40041416420688168B6
:1074000001F00701062903D0016841F00101016084
:10741000002010BDD06840F00800DFE7D06840F0E1
:107420001000DBE7002C0140000400400008004091
:10743000000C004000340140F1710008DF710008C9
:1074400010B50268044631B1042908D008292FD0AC
:107450000C2908D130E0D06820F0020002E0D068AA
:1074600020F00400D06000222068FFF754FFF748A6
:1074700041F2111221689310814202D0F4488142F6
:1074800009D1086A104206D1086A184203D1486C33
:1074900020F4004048642068016A114206D1016A64
:1074A000194203D1016821F001010160002010BDE3
:1074B000D06820F00800D5E7D06820F01000D1E7B0
:1074C000704710B5446A012184F83D10626A824217
:1074D00001D121770EE0A16A814201D1022008E0AA
:1074E000E16A814201D1042003E0216B814201D194
:1074F000082020772046FFF7E3FF0020207710BD0B
:10750000704710B5446A012184F83D10626A8242D6
:1075100001D121770EE0A16A814201D1022008E069
:10752000E16A814201D1042003E0216B814201D153
:10753000082020772046FFF7E3FF0020207710BDCA
:107540002DE9F041044690F83D0016460D4602280C
:1075500056D094F83D00012805D10EB9002B71D109
:10756000022084F83D00AFF26500AFF2A901AFF24E
:10757000A33235B1042D16D0082D44D00C2D24D1C2
:1075800053E0676AB862606AC162606A314602634A
:107590002268606A343204F0F6F998BB2068C1684A
:1075A00041F4007110E0A76AB862A06AC162A06AE3
:1075B000314602632268A06A383204F0E4F908BB5D
:1075C0002068C16841F48061C160012229462068B9
:1075D000FFF7A1FE9D492068884202D09C4988425D
:1075E00003D1416C41F4004141642068816801F09D
:1075F0000701062903D0016841F001010160002064
:10760000BDE8F0811EE0E76AB862E06AC162E06A44
:10761000314602632268E06A3C3204F0B4F988B96A
:107620002068C16841F40061CEE7276BB862206B27
:10763000C162206B314602632268206B403204F045
:10764000A2F908B10120DBE72068C16841F480514C
:10765000BAE770B5044600680D0006D0042D0AD0C4
:10766000082D38D00C2D0DD13BE0C16821F40071FC
:10767000C160606A04E0C16821F48061C160A06AF1
:1076800004F0DCF9002229462068FFF744FE6F4928
:1076900041F2111220689310884202D06C4988424E
:1076A00009D1016A114206D1016A194203D1416C24
:1076B00021F4004141642068016A114206D1016A47
:1076C000194203D1016821F001010160012084F811
:1076D0003D00002070BDC16821F40061C160E06A16
:1076E000CEE7C16821F48051C160206BC8E77047C4
:1076F00010B5040003D094F83D0010B107E001205C
:1077000010BD002084F83C002046FFF7F0FF022067
:1077100084F83D00211D2068FFF794FC012084F8C7
:107720003D00002010BD704710B50446022084F8CB
:107730003D002068016A41F21112114207D1016A2D
:107740009210114203D1016821F00101016020462D
:10775000FFF7E9FF002084F83D0084F83C0010BDED
:1077600010B5044600680122FFF7D5FD37482168AF
:10777000814202D03648814203D1486C40F4004037
:1077800048642068816801F00701062903D0016878
:1077900041F001010160002010BD10B504460068F1
:1077A0000022FFF7B8FD294841F211122168931019
:1077B000814202D02648814209D1086A104206D18E
:1077C000086A184203D1486C20F4004048642068DD
:1077D000016A114206D1016A194203D1016821F000
:1077E00001010160012084F83D00002010BD10B5AA
:1077F0000268044631B1042908D008292AD00C298E
:1078000008D12BE0D06840F0020002E0D06840F0E0
:107810000400D06001222068FFF77DFD0B4920683D
:10782000884202D00A49884203D1416C41F40041A8
:1078300041642068816801F00701062903D00168CE
:1078400041F001010160002010BD0000002C01404A
:1078500000340140D06840F00800DAE7D06840F01A
:107860001000D6E710B50268044631B1042908D0EB
:1078700008292FD00C2908D130E0D06820F0020070
:1078800002E0D06820F00400D06000222068FFF7FA
:1078900042FDF74841F2111221689310814202D053
:1078A000F448814209D1086A104206D1086A184298
:1078B00003D1486C20F4004048642068016A1142FA
:1078C00006D1016A194203D1016821F0010101606A
:1078D0000020B9E7D06820F00800D5E7D06820F094
:1078E0001000D1E72DE9F041044690F83D0016461E
:1078F0000D46022856D094F83D00012805D10EB956
:10790000002B70D1022084F83D00AFF20940AFF2A5
:107910004D41AFF2477235B1042D16D0082D43D03A
:107920000C2D24D152E0676AB862606AC162606A55
:10793000314602632268606A343204F024F890BB56
:107940002068C16841F4007110E0A76AB862A06ABB
:10795000C162A06A314602632268A06A383204F02C
:1079600012F800BB2068C16841F48061C160012247
:1079700029462068FFF7CFFCBD492068884202D025
:10798000BC49884203D1416C41F400414164206804
:10799000816801F00701062903D0016841F0010167
:1079A000016000202CE61EE0E76AB862E06AC1626E
:1079B000E06A314602632268E06A3C3203F0E3FF8A
:1079C00088B92068C16841F40061CFE7276BB862CD
:1079D000206BC162206B314602632268206B40320B
:1079E00003F0D1FF08B101200AE62068C16841F424
:1079F0008051BBE770B5044600680D0006D0042D29
:107A00000AD0082D38D00C2D0DD13BE0C16821F4EF
:107A10000071C160606A04E0C16821F48061C160E6
:107A2000A06A04F00BF8002229462068FFF773FCD7
:107A30008F4941F2111220689310884202D08D497B
:107A4000884209D1016A114206D1016A194203D163
:107A5000416C21F4004141642068016A114206D161
:107A6000016A194203D1016821F00101016001207E
:107A700084F83D00002070BDC16821F40061C16040
:107A8000E06ACEE7C16821F48051C160206BC8E78D
:107A9000704710B5040003D094F83D0010B107E022
:107AA0000120D1E6002084F83C002046FFF7F0FFDB
:107AB000022084F83D00211D2068FFF7C3FA012051
:107AC00084F83D000020BFE6704710B50446022050
:107AD00084F83D002068016A41F21112114207D179
